{
  "_format": "hh-sol-artifact-1",
  "contractName": "KBGallery",
  "sourceName": "contracts/KBGallery.sol",
  "abi": [
    {
      "inputs": [],
      "stateMutability": "nonpayable",
      "type": "constructor"
    },
    {
      "anonymous": false,
      "inputs": [
        {
          "indexed": true,
          "internalType": "uint256",
          "name": "itemId",
          "type": "uint256"
        },
        {
          "indexed": true,
          "internalType": "address",
          "name": "nftContract",
          "type": "address"
        },
        {
          "indexed": true,
          "internalType": "uint256",
          "name": "tokenId",
          "type": "uint256"
        },
        {
          "indexed": false,
          "internalType": "address",
          "name": "seller",
          "type": "address"
        },
        {
          "indexed": false,
          "internalType": "address",
          "name": "owner",
          "type": "address"
        },
        {
          "indexed": false,
          "internalType": "uint256",
          "name": "price",
          "type": "uint256"
        },
        {
          "indexed": false,
          "internalType": "bool",
          "name": "sold",
          "type": "bool"
        }
      ],
      "name": "MarketTokenMinted",
      "type": "event"
    },
    {
      "anonymous": false,
      "inputs": [
        {
          "indexed": false,
          "internalType": "uint256",
          "name": "gallerySalesCommissionFeeDiscount",
          "type": "uint256"
        }
      ],
      "name": "themFees",
      "type": "event"
    },
    {
      "inputs": [
        {
          "internalType": "address",
          "name": "nftContract",
          "type": "address"
        },
        {
          "internalType": "uint256",
          "name": "itemId",
          "type": "uint256"
        }
      ],
      "name": "createMarketSale",
      "outputs": [],
      "stateMutability": "payable",
      "type": "function"
    },
    {
      "inputs": [],
      "name": "fetchItemsCreated",
      "outputs": [
        {
          "components": [
            {
              "internalType": "uint256",
              "name": "itemId",
              "type": "uint256"
            },
            {
              "internalType": "address",
              "name": "nftContract",
              "type": "address"
            },
            {
              "internalType": "uint256",
              "name": "tokenId",
              "type": "uint256"
            },
            {
              "internalType": "address payable",
              "name": "seller",
              "type": "address"
            },
            {
              "internalType": "address payable",
              "name": "owner",
              "type": "address"
            },
            {
              "internalType": "uint256",
              "name": "price",
              "type": "uint256"
            },
            {
              "internalType": "bool",
              "name": "sold",
              "type": "bool"
            }
          ],
          "internalType": "struct KBGallery.MarketToken[]",
          "name": "",
          "type": "tuple[]"
        }
      ],
      "stateMutability": "view",
      "type": "function"
    },
    {
      "inputs": [],
      "name": "fetchMarketTokens",
      "outputs": [
        {
          "components": [
            {
              "internalType": "uint256",
              "name": "itemId",
              "type": "uint256"
            },
            {
              "internalType": "address",
              "name": "nftContract",
              "type": "address"
            },
            {
              "internalType": "uint256",
              "name": "tokenId",
              "type": "uint256"
            },
            {
              "internalType": "address payable",
              "name": "seller",
              "type": "address"
            },
            {
              "internalType": "address payable",
              "name": "owner",
              "type": "address"
            },
            {
              "internalType": "uint256",
              "name": "price",
              "type": "uint256"
            },
            {
              "internalType": "bool",
              "name": "sold",
              "type": "bool"
            }
          ],
          "internalType": "struct KBGallery.MarketToken[]",
          "name": "",
          "type": "tuple[]"
        }
      ],
      "stateMutability": "view",
      "type": "function"
    },
    {
      "inputs": [],
      "name": "fetchMyNFTs",
      "outputs": [
        {
          "components": [
            {
              "internalType": "uint256",
              "name": "itemId",
              "type": "uint256"
            },
            {
              "internalType": "address",
              "name": "nftContract",
              "type": "address"
            },
            {
              "internalType": "uint256",
              "name": "tokenId",
              "type": "uint256"
            },
            {
              "internalType": "address payable",
              "name": "seller",
              "type": "address"
            },
            {
              "internalType": "address payable",
              "name": "owner",
              "type": "address"
            },
            {
              "internalType": "uint256",
              "name": "price",
              "type": "uint256"
            },
            {
              "internalType": "bool",
              "name": "sold",
              "type": "bool"
            }
          ],
          "internalType": "struct KBGallery.MarketToken[]",
          "name": "",
          "type": "tuple[]"
        }
      ],
      "stateMutability": "view",
      "type": "function"
    },
    {
      "inputs": [],
      "name": "getListingPrice",
      "outputs": [
        {
          "internalType": "uint256",
          "name": "",
          "type": "uint256"
        }
      ],
      "stateMutability": "view",
      "type": "function"
    },
    {
      "inputs": [
        {
          "internalType": "address",
          "name": "nftContract",
          "type": "address"
        },
        {
          "internalType": "uint256",
          "name": "tokenId",
          "type": "uint256"
        },
        {
          "internalType": "uint256",
          "name": "price",
          "type": "uint256"
        }
      ],
      "name": "maketMarketItem",
      "outputs": [],
      "stateMutability": "payable",
      "type": "function"
    }
  ],
  "bytecode": "0x6080604052669fdf42f6e480006004556105dc6005556107d060065534801561002757600080fd5b506001600055600380546001600160a01b03191633179055610db28061004e6000396000f3fe6080604052600436106100555760003560e01c806312e855851461005a578063202e37401461007d57806343be8f581461009f578063c23b139e146100b4578063c69bdf75146100c7578063f064c32e146100dc575b600080fd5b34801561006657600080fd5b506004546040519081526020015b60405180910390f35b34801561008957600080fd5b506100926100f1565b6040516100749190610c49565b6100b26100ad366004610c17565b6102f2565b005b6100b26100c2366004610bee565b61058f565b3480156100d357600080fd5b506100926107fe565b3480156100e857600080fd5b5061009261099e565b606060006100fe60015490565b905060008060005b8381101561016157336007600061011e846001610cdd565b81526020810191909152604001600020600401546001600160a01b0316141561014f5761014c600184610cdd565b92505b8061015981610d4b565b915050610106565b5060008267ffffffffffffffff81111561018b57634e487b7160e01b600052604160045260246000fd5b6040519080825280602002602001820160405280156101c457816020015b6101b1610b96565b8152602001906001900390816101a95790505b50905060005b848110156102e95733600760006101e2846001610cdd565b81526020810191909152604001600020600401546001600160a01b031614156102d7576000600781610215846001610cdd565b815260208082019290925260409081016000908120548082526007845290829020825160e0810184528154815260018201546001600160a01b039081169582019590955260028201549381019390935260038101548416606084015260048101549093166080830152600583015460a0830152600683015460ff16151560c083015285519093508590879081106102bc57634e487b7160e01b600052603260045260246000fd5b60209081029190910101526102d2600186610cdd565b945050505b806102e181610d4b565b9150506101ca565b50949350505050565b6002600054141561034a5760405162461bcd60e51b815260206004820152601f60248201527f5265656e7472616e637947756172643a207265656e7472616e742063616c6c0060448201526064015b60405180910390fd5b60026000558061039c5760405162461bcd60e51b815260206004820152601e60248201527f5072696365206d757374206265206174206c65617374206f6e652077656900006044820152606401610341565b60045434146103f95760405162461bcd60e51b8152602060048201526024808201527f5072696365206d75737420626520657175616c20746f206c697374696e6720706044820152637269636560e01b6064820152608401610341565b610407600180546001019055565b600061041260015490565b6040805160e0810182528281526001600160a01b0387811660208084018281528486018a8152336060870181815260006080890181815260a08a018e815260c08b018381528d84526007909852918b902099518a55945160018a018054918a166001600160a01b0319928316179055935160028a015590516003890180549189169185169190911790559251600480890180549290981691909316179095559051600586015590516006909401805494151560ff199095169490941790935592516323b872dd60e01b81529182015230602482015260448101869052919250906323b872dd90606401600060405180830381600087803b15801561051557600080fd5b505af1158015610529573d6000803e3d6000fd5b505060408051338152600060208201819052818301879052606082015290518693506001600160a01b038816925084917fcd9b0dfebab7db4dbe70606f69fadc8e987e7c80a65410f0bb5ae8bd72dabba7919081900360800190a4505060016000555050565b600260005414156105e25760405162461bcd60e51b815260206004820152601f60248201527f5265656e7472616e637947756172643a207265656e7472616e742063616c6c006044820152606401610341565b6002600081815582815260076020526040812060058101549201549061060960c884610cf5565b905060013484146106785760405162461bcd60e51b815260206004820152603360248201527f506c65617365207375626d6974207468652061736b696e6720707269636520696044820152726e206f7264657220746f20636f6e74696e756560681b6064820152608401610341565b6000858152600760205260408082206003015490516001600160a01b03909116913480156108fc02929091818181858888f193505050501580156106c0573d6000803e3d6000fd5b506040516323b872dd60e01b8152306004820152336024820152604481018490526001600160a01b038716906323b872dd90606401600060405180830381600087803b15801561070f57600080fd5b505af1158015610723573d6000803e3d6000fd5b50505060008681526007602052604090206004810180546001600160a01b03191633179055600601805460ff1916600117905550610765600280546001019055565b6003546004546001600160a01b03909116906108fc90610786908490610d15565b6040518115909202916000818181858888f193505050501580156107ae573d6000803e3d6000fd5b506003546001600160a01b03166108fc6107c88385610d15565b6040518115909202916000818181858888f193505050501580156107f0573d6000803e3d6000fd5b505060016000555050505050565b6060600061080b60015490565b9050600061081860025490565b6001546108259190610d34565b90506000808267ffffffffffffffff81111561085157634e487b7160e01b600052604160045260246000fd5b60405190808252806020026020018201604052801561088a57816020015b610877610b96565b81526020019060019003908161086f5790505b50905060005b848110156102e95760006007816108a8846001610cdd565b81526020810191909152604001600020600401546001600160a01b0316141561098c5760006108d8826001610cdd565b600081815260076020908152604091829020825160e0810184528154815260018201546001600160a01b039081169382019390935260028201549381019390935260038101548216606084015260048101549091166080830152600581015460a0830152600681015460ff16151560c083015285519293509185908790811061097157634e487b7160e01b600052603260045260246000fd5b6020908102919091010152610987600186610cdd565b945050505b8061099681610d4b565b915050610890565b606060006109ab60015490565b905060008060005b83811015610a0e5733600760006109cb846001610cdd565b81526020810191909152604001600020600301546001600160a01b031614156109fc576109f9600184610cdd565b92505b80610a0681610d4b565b9150506109b3565b5060008267ffffffffffffffff811115610a3857634e487b7160e01b600052604160045260246000fd5b604051908082528060200260200182016040528015610a7157816020015b610a5e610b96565b815260200190600190039081610a565790505b50905060005b848110156102e9573360076000610a8f846001610cdd565b81526020810191909152604001600020600301546001600160a01b03161415610b84576000600781610ac2846001610cdd565b815260208082019290925260409081016000908120548082526007845290829020825160e0810184528154815260018201546001600160a01b039081169582019590955260028201549381019390935260038101548416606084015260048101549093166080830152600583015460a0830152600683015460ff16151560c08301528551909350859087908110610b6957634e487b7160e01b600052603260045260246000fd5b6020908102919091010152610b7f600186610cdd565b945050505b80610b8e81610d4b565b915050610a77565b6040805160e081018252600080825260208201819052918101829052606081018290526080810182905260a0810182905260c081019190915290565b80356001600160a01b0381168114610be957600080fd5b919050565b60008060408385031215610c00578182fd5b610c0983610bd2565b946020939093013593505050565b600080600060608486031215610c2b578081fd5b610c3484610bd2565b95602085013595506040909401359392505050565b602080825282518282018190526000919060409081850190868401855b82811015610cd057815180518552868101516001600160a01b039081168887015286820151878701526060808301518216908701526080808301519091169086015260a0808201519086015260c09081015115159085015260e09093019290850190600101610c66565b5091979650505050505050565b60008219821115610cf057610cf0610d66565b500190565b600082610d1057634e487b7160e01b81526012600452602481fd5b500490565b6000816000190483118215151615610d2f57610d2f610d66565b500290565b600082821015610d4657610d46610d66565b500390565b6000600019821415610d5f57610d5f610d66565b5060010190565b634e487b7160e01b600052601160045260246000fdfea264697066735822122001ba2dba526927cd9072fb310ae93632f97fc8c5227f3b0f9d51f8768db44edb64736f6c63430008040033",
  "linkReferences": {},
  "deployedLinkReferences": {}
}